:020000040800F2
:1000000000200020651A00087D0600087F06000811
:1000100000000000000000000000000000000000E0
:100020000000000000000000000000008106000841
:10003000000000000000000083060008850600089C
:10004000B51A0008B51A0008B51A0008B51A000854
:10005000B51A0008B51A0008B51A0008B51A000844
:10006000B51A0008B51A0008B51A0008B51A000834
:10007000B51A0008B51A000800000000B51A0008FB
:1000800000000000B51A0008000000000000000099
:10009000B51A000800000000B51A0008B51A0008DB
:1000A000B51A0008B51A0008B51A0008B51A0008F4
:1000B000B51A0008B51A0008B51A0008B51A0008E4
:1000C00010B5064C2378002B07D1054B002B02D02E
:1000D000044800E000BF0123237010BD0C00002085
:1000E00000000000101B0008044B10B5002B03D0CB
:1000F0000349044800E000BF10BDC04600000000F6
:1001000010000020101B0008002243088B4274D30B
:1001100003098B425FD3030A8B4244D3030B8B4208
:1001200028D3030C8B420DD3FF22090212BA030C11
:100130008B4202D31212090265D0030B8B4219D3F2
:1001400000E0090AC30B8B4201D3CB03C01A524112
:10015000830B8B4201D38B03C01A5241430B8B425A
:1001600001D34B03C01A5241030B8B4201D30B0343
:10017000C01A5241C30A8B4201D3CB02C01A52416A
:10018000830A8B4201D38B02C01A5241430A8B422D
:1001900001D34B02C01A5241030A8B4201D30B0216
:1001A000C01A5241CDD2C3098B4201D3CB01C01A30
:1001B000524183098B4201D38B01C01A524143093A
:1001C0008B4201D34B01C01A524103098B4201D328
:1001D0000B01C01A5241C3088B4201D3CB00C01A95
:1001E000524183088B4201D38B00C01A524143080D
:1001F0008B4201D34B00C01A5241411A00D2014632
:10020000524110467047FFE701B5002000F006F8A4
:1002100002BDC0460029F7D076E770477047C04658
:10022000002B11D1002A0FD1002900D1002802D0C3
:100230000021C943080007B4024802A140180290F7
:1002400003BDC046D9FFFFFF03B4684601B502985D
:1002500000F034F8019B9E4602B00CBC7047C046CB
:10026000F0B5CE469946030C9C46130447461B0C3A
:100270001D000E0061460404240C80B50700100C1C
:100280004B436543414360432C0CC01820188C46F7
:10029000834203D980235B029846C444494679438C
:1002A0005643030C2D042D0C891963440004401996
:1002B000C918C0BCB946B046F0BDC046F0B55746F7
:1002C0004E464546DE46E0B504000D00924699468E
:1002D00083B08B4230D82DD04946504600F0BAF852
:1002E00029000600200000F0B5F8331A9846203B9C
:1002F00034D49B4653465A46934042461F005346C9
:1003000093401E00AF423BD8AF4200D179E05B463C
:10031000A41BBD41002B00DA76E0002200230092EE
:10032000019301235A46934001930123424693408F
:10033000009329E08242CFD900220023009201934A
:100340000C9B002B01D01C605D600098019903B0EC
:10035000F0BCBB46B246A946A046F0BD42469B460D
:1003600020239B1A5246DA40414613004A468A40EF
:10037000170042461F43534693401E00AF42C3D965
:1003800000220023009201934346002BD8D0FB07A4
:1003900072081A4346467B080EE0AB4201D1A242E6
:1003A0000CD8A41A9D41012024196D410021013E61
:1003B00024184D41002E06D0AB42EED9013E24193F
:1003C0006D41002EF8D1009801995B4600196941F2
:1003D000002B24DB2B005A464446D3402A00E2403F
:1003E0001C005B461500002B2ADB26009E403300D4
:1003F00026004746BE403200801A99410090019184
:100400009EE7A342BCD882E74246202300219B1AE4
:100410000022009101920122DA40019285E74246D2
:1004200020239B1A2A0046469A402300F340444664
:1004300013432A00E2401C005B461500002BD4DA6F
:1004400042462F002023260097409B1ADE403B00A7
:100450003343CDE710B5002903D100F007F8203071
:1004600002E0080000F002F810BDC0461C21012384
:100470001B04984201D3000C10391B0A984201D387
:10048000000A08391B09984201D30009043902A265
:10049000105C40187047C0460403020201010101CC
:1004A000000000000000000070B588B01422002198
:1004B00003A801F000FB1B4BD96A04221143D96247
:1004C000D96A0A400092009AD96A80221143D962FF
:1004D000D96A0A400192019ADA6A01252A43DA624E
:1004E000DB6A2B400293029BA026F6050022202106
:1004F000300001F05AFA80239B01039384239B036D
:1005000004930024059403A9074801F081F92023EE
:10051000039304950594069403A9300001F078F93B
:1005200008B070BD001002400008005010B58021D6
:100530008901104801F032FA00280DD10E4A1368E3
:10054000013313600C4B1B68272B10D90B4B1B7806
:10055000002B07D000200BE0074B00221A60074B4E
:100560001A70EFE7054B01221A70012000E000200D
:1005700010BDC04600080050280000202C000020BC
:1005800072B6FEE710B50B480B4B0360E1235B022C
:10059000436000238360C36003610C224261836176
:1005A000C3610362436200F04FFB002800D110BD1D
:1005B000FFF7E6FF300000200044004000B59DB08A
:1005C000382200210EA801F076FA1422002109A891
:1005D00001F071FA24220021684601F06CFA1A49F0
:1005E0000A681A4B1A4080231B0113430B60102327
:1005F0000E930F3B159300231693A022120217921D
:1006000018930EA800F00EFC002817D10F230993B1
:1006100000230A930B930C930D93002109A800F07B
:10062000C5FE00280CD102230093002304936846E2
:1006300000F0CEFF002805D11DB000BDFFF7A0FFE0
:10064000FFF79EFFFFF79CFF00700040FFE7FFFFF2
:1006500010B500F057FBFFF7B1FFFFF725FFFFF7DD
:1006600091FFFFF763FF0028FBD0A0202021C005E9
:1006700001F0A1F9642000F06BFBF2E7FEE7FEE772
:100680007047704710B500F051FB10BD054B5A6B19
:1006900001210A435A63996B802252050A439A63E7
:1006A0007047C0460010024010B586B00400142206
:1006B000002101A801F0FFF92268104B9A4201D0F5
:1006C00006B010BD0E4B996B802292020A439A63CA
:1006D000D96A01221143D962DB6A1A400092009B59
:1006E0000C2301930A3B02930133049301330593D6
:1006F000A02001A9C00501F08BF8E1E7004400400B
:100700000010024010B5EFF3108C012282F3108824
:1007100001680B68124C23400B608CF31088EFF3D8
:10072000108C82F3108801688B6893438B608CF384
:100730001088036E012B06D080232022C250002394
:100740000366836610BDEFF3108183F3108802689F
:1007500013683234FF34A343136081F31088EBE74E
:10076000DFFEFFFFD0B50400016883680269134310
:1007700042691343C26913430A6893480240134312
:100780000B602268536891490B40E1680B4353604A
:10079000A16922688E4B9A4201D0236A194393685B
:1007A0008C4803400B43936022688B4B9A4216D0CF
:1007B0008A4B9A4224D0864B9A4232D010238449E5
:1007C0008A425CD0E06980221202904200D192E01D
:1007D000082B00D9F1E09B00814AD3589F46814BFA
:1007E000D96C03230B40022B33D005D8002B32D019
:1007F000012B32D10333E2E7032B30D10533DEE79F
:10080000784BD96C0C230B40082B2AD005D8002B31
:1008100029D0042BD3D01023D1E70C2B25D1043BB6
:10082000CDE7704BDB6CC02109010B408021090131
:100830008B421CD007D8002B1BD08021C9008B42D3
:1008400019D10423BBE7C02109018B4215D108232C
:10085000B5E70223B3E70123B1E71023AFE7102385
:10086000ADE70223ABE70023A9E71023A7E70223A4
:10087000A5E70023A3E71023A1E710239FE7042B9C
:1008800034D00BD8002B2BD0022B05D1554B1B6835
:10089000DB062ED4544805E001206DE0082B1DD165
:1008A00080200002626853009B18834200D978E0E0
:1008B0001303834200D276E0070E0602500800219F
:1008C000801979410023FFF7ABFC484BC218484B15
:1008D0009A426AD82368D86000204DE001204BE09E
:1008E00000F056FE0028DDD1002045E000F042FA7D
:1008F000F8E74048D6E7082B59D89B003E4AD35822
:100900009F4600F045FE002853D0400061684B0828
:10091000C018FFF7F9FB0200103A384B9A424AD848
:1009200082B20F239A434008083B034013432268D6
:10093000D360002020E000F03BFEE4E7294B1B6879
:10094000DB0604D42848E0E700F014FADBE7294886
:10095000DBE700F01DFE002831D061684B08181855
:10096000FFF7D2FB0200103A244B9A4229D82368A1
:100970000004000CD86000200023A366E366D0BD0D
:1009800000F016FEE7E7174B1B68DB0607D4164896
:10099000E3E700F0EFF9DEE780200002DDE715482D
:1009A000DBE70120E8E70120E6E70120E4E701209A
:1009B000E2E70020E0E70120DEE70120DCE700209D
:1009C000DAE70120D8E7C046F369FFEFFFCFFFFF6A
:1009D00000480040FFF4FFFF0038014000440040A1
:1009E000281B0008001002400024F40000FDFFFF57
:1009F000FFFC0F0000093D004C1B0008EFFF00004A
:100A0000436ADB0706D5026853682C490B40816AAC
:100A10000B435360436A9B0706D502685368284915
:100A20000B40C16A0B435360436A5B0706D50268FB
:100A3000536824490B40016B0B435360436A1B0707
:100A400006D50268536820490B40416B0B43536045
:100A5000436ADB0606D5026893681C490B40816B2C
:100A60000B439360436A9B0606D502689368184956
:100A70000B40C16B0B439360436A5B060BD5026866
:100A8000536814490B40016C0B435360026C802384
:100A90005B039A420AD0436A1B0606D50268536874
:100AA0000D490B40816C0B435360704702685368DB
:100AB0000A490B40416C0B435360ECE7FFFFFDFF1D
:100AC000FFFFFEFFFFFFFBFFFF7FFFFFFFEFFFFFCB
:100AD000FFDFFFFFFFFFEFFFFFFFF7FFFFFF9FFFBE
:100AE000F8B5CE46474680B506000D00170099467A
:100AF000089B98463368DC692C40641B63425C4168
:100B0000BC422FD143460133F4D000F01BF94B46D1
:100B1000C01A40452BD84346002B2AD033681A68A8
:100B20005207E7D5DA69120710D4DA691205E1D560
:100B3000802212011A623000FFF7E4FD8423202294
:100B4000F2500C3B0022F25403200CE008241C62FB
:100B50003000FFF7D7FD8423F4500C3B0022F25401
:100B6000012000E00020C0BCB946B046F8BD03201B
:100B7000F9E70320F7E7000030B583B004008423D1
:100B80000022C25000F0DEF8050023681B681B0736
:100B90000FD423681B685B0729D42023E3678022D6
:100BA000A350002323666366083AA354002003B0D1
:100BB00030BD8021224B00930300002289032000D6
:100BC000FFF78EFF0028E4D0EFF31081012383F3B9
:100BD00010882268136880208343136081F3108893
:100BE0002023E36758330022E2547D38DFE7802179
:100BF000134B00932B000022C9032000FFF770FF66
:100C00000028CAD0EFF31080012282F310882168F7
:100C10000B680C4D2B400B6080F31088EFF31080B5
:100C200082F3108821688B6893438B6080F310886F
:100C300080231F32E250083B0022E2540320B6E733
:100C4000FFFFFF01DFFEFFFF10B5041E2ED0C36FB4
:100C5000002B21D02423E3672268136801218B43F2
:100C600013602000FFF77EFD012814D0636A002B7B
:100C700018D1226853680E490B405360226893686C
:100C80002A218B4393602268136829390B43136030
:100C90002000FFF771FF10BD78330022C254FFF728
:100CA00003FDD7E72000FFF7ABFEE2E70120F2E704
:100CB000FFB7FFFF10B504000F4B1978FA20800032
:100CC000FFF722FA01000D4B1868FFF71DFA00F03C
:100CD000ABFE00280DD1032C01D901200AE0013020
:100CE00000222100404200F06FFE054B1C600020F6
:100CF00000E0012010BDC0460000002008000020D8
:100D00000400002010B5084A136840210B4313600B
:100D10000020FFF7CFFF041E02D00124200010BDE9
:100D2000FFF7B4FCFAE7C04600200240034A11680E
:100D3000034B1B785B1813607047C046B800002057
:100D400000000020014B18687047C046B800002022
:100D500070B50400FFF7F6FF0500631C02D0044BDA
:100D60001B78E418FFF7EEFF401BA042FAD370BDDA
:100D70000000002010B5264BDA680C231340082B26
:100D800042D00C2B11D0042B09D0214B5A68520BA6
:100D900007231340013380200002984010BD1C4BF4
:100DA0001B68DB0632D51B48F8E7910C0F230B407C
:100DB0001949C85C920D03231A40541C144BDB687C
:100DC000DB0309D5154A00230021FFF749FA220069
:100DD0000023FFF725FAE1E70D4B1B68DB0609D579
:100DE0000C4A00230021FFF73BFA22000023FFF703
:100DF00017FAD3E70A4A00230021FFF731FA22004D
:100E00000023FFF70DFAC9E70448C7E70448C5E720
:100E10000010024000093D00881B000800127A0003
:100E20000024F400F0B583B0041E00D197E2C14B5A
:100E3000DA680C251540DE6880235B021E400368DB
:100E4000DB0736D5082D2CD00C2D28D063688022E6
:100E5000520293424DD0A022D202934250D0B54BC1
:100E60001A68B5490A401A601A68802149020A4086
:100E70000192019A1A68B1490A401A606368002B0E
:100E80004AD0FFF75FFF0700AA4B1B689B0310D4F3
:100E9000FFF758FFC01B6428F6D9032060E2002E3C
:100EA000D4D0A44B1B689B0303D56368002B00D1EF
:100EB00058E223689B0765D5E368042D3CD00C2DD0
:100EC00038D0002B00D1B0E09A490A68092082434B
:100ED00013430B60FFF736FF0600964B1B685B075A
:100EE00000D599E0FFF72EFF801B0228F5D90320DB
:100EF00036E2904A116880235B020B431360BDE722
:100F00008C4B19688022D2020A431A601968802229
:100F100052020A431A60B1E7FFF714FF0700854B3E
:100F20001B689B03C5D5FFF70DFFC01B6428F6D9CE
:100F3000032015E2002EC4D17E4A1268520702D562
:100F4000002B00D110E27B4E72687D490A40216976
:100F500009020A437260326809218A4313433360ED
:100F6000FFF708FFF26812090F231340754AD35C9C
:100F7000D840754B1860754B1868FFF79BFE00282A
:100F800000D0EDE12368DB062DD5002D60D1694B43
:100F90001B689B0503D5E369002B00D1E6E1654A98
:100FA00053686B490B40616A0B43536053681B02E3
:100FB0001B0A216A09060B435360616A490B013120
:100FC00080231B028B40D16809090F220A405D492A
:100FD0008A5CD3405C4A13605C4B1868FFF76AFE7A
:100FE000002800D0BCE123681B077DD56369002B76
:100FF00067D0504A136D01210B431365FFF7A2FE22
:1010000006004C4B1B6D9B076ED4FFF79BFE801BAD
:101010000228F6D90320A3E146494B68484A134009
:101020002269120213434B60ACE7424A1368012164
:101030008B431360FFF786FE06003E4B1B685B0781
:10104000A0D5FFF77FFE801B0228F6D9032087E199
:10105000E369002B22D0374A116880235B000B43E1
:101060001360FFF76FFE0600324B1B689B0506D42A
:10107000FFF768FE801B0228F6D9032070E12D4A95
:10108000536833490B40616A0B43536053681B023A
:101090001B0A216A09060B435360A4E7254A13681B
:1010A0002C490B401360FFF74DFE0600214B1B68D7
:1010B0009B0598D5FFF746FE801B0228F6D9032032
:1010C0004EE11C4A136D01218B431365FFF73AFE75
:1010D0000600184B1B6D9B0706D5FFF733FE801BE0
:1010E0000228F6D903203BE123685B0700D48EE099
:1010F000104B9B6BDB001BD40E4A916B80235B056E
:101100000B4393630126144B1B68DB0528D5A368AA
:1011100080225200934237D0002B4DD1054B1A6DDF
:101120000C490A401A651A6D0C490A401A6531E0EB
:101130000026E8E700100240FFFFFEFFFFFFFBFF75
:10114000FFE0FFFF701B00080800002004000020E3
:10115000FF1FFFFFFFFEFFFF00700040FFFBFFFFD0
:10116000884A116880235B000B431360FFF7EAFD98
:101170000700844B1B68DB05C9D4FFF7E3FDC01BE8
:101180006428F6D90320EBE07F4A116D80235B00D1
:101190000B431365A368002B28D0FFF7D3FD07008E
:1011A000794B1B6D9B0530D4FFF7CCFDC01B774BF3
:1011B0009842F5D90320D3E0A022D200934209D06F
:1011C000714B1A6D72490A401A651A6D71490A40CD
:1011D0001A65DFE76C4B196D013AFF3A0A431A654D
:1011E000196D802252000A431A65D3E7FFF7AAFD62
:1011F0000700654B1B6D9B0507D5FFF7A3FDC01BC3
:10120000624B9842F5D90320AAE0012E21D0236831
:101210009B063CD5A369002B21D05B4B9A6801212A
:101220000A439A605A6B0A435A635B4A116A8023E5
:101230009B010B431362FFF785FD0600524B9B6831
:101240009B0724D4FFF77EFD801B0228F6D90320DC
:1012500086E04D4A936B51490B409363D7E74A4A66
:10126000936801218B4393604B4A136A4C490B40AE
:101270001362FFF767FD0600434B9B689B0706D58B
:10128000FFF760FD801B0228F6D9032068E0A36AFF
:10129000002B00D16CE00C2D49D0022B12D03A4A21
:1012A000136840490B401360FFF74CFD0400364BB8
:1012B0001B689B0139D5FFF745FD001B0228F6D9B5
:1012C00003204DE0304A136836490B401360FFF7A6
:1012D00039FD05002C4B1B689B0106D5FFF732FD3D
:1012E000401B0228F6D903203AE02749CB682E4A52
:1012F0001340E26A206B0243606B02431343CB60EE
:101300000A6880235B0413430B60FFF71BFD040096
:101310001D4B1B689B0106D4FFF714FD001B022820
:10132000F6D903201CE000201AE0002018E0012B71
:1013300020D0154BDA6880235B021340E16A8B42B0
:101340001AD1F0239B031340216B8B4216D1C0238B
:101350001B041A40636B9A4212D1002000E0012066
:1013600003B0F0BD0120FBE70120F9E70120F7E71A
:101370000020F5E70120F3E70120F1E70120EFE786
:101380000120EDE7007000400010024088130000CB
:10139000FFFEFFFFFFFBFFFF00000140FFFFFFEF2D
:1013A000FFDFFFFFFFFFFFFEFFFF02FF70B505003D
:1013B0000C00002800D1D1E06A4B1A6801231340C9
:1013C0008B4219D32B689B0706D5674AD368F02157
:1013D0008B43A9680B43D3602B68DB077BD56B6815
:1013E000022B20D0032B40D0012B44D05E4A126840
:1013F00092051DD4012099E05A4A136801218B43BC
:1014000023431360FFF79EFC0600564B1A68012326
:101410001340A342D6D0FFF795FC801B534A90425D
:10142000F3D9032082E0504A1268920300D497E077
:101430004D49CA68032082431343CB60FFF782FC07
:1014400006006B68022B1CD0032B28D0012B34D054
:10145000454BDB680C221A423DD0FFF773FC801B22
:10146000424B9842F4D9032060E03F4A126892014F
:10147000DED401205AE03C4A12685207D8D4012039
:1014800054E0394BDA680C231340082B23D0FFF7C4
:1014900059FC801B354A9042F3D9032046E0324B79
:1014A000DA680C2313400C2B15D0FFF74BFC801B84
:1014B0002E4B9842F3D9032038E02B4BDA680C23EB
:1014C0001340042B07D0FFF73DFC801B274B9842AD
:1014D000F3D903202AE0234B1A6801231340A342C7
:1014E00025D82B685B0706D51F4AD36820490B40D7
:1014F000E9680B43D3602B681B0707D51A49CB68F3
:101500001C4A13402A69D2001343CB60FFF732FC18
:10151000154BDA6812090F231340174AD35CD840E1
:10152000164B1860164B1868FFF7C4FB70BD0D4AC8
:10153000136801218B4323431360FFF703FC06006C
:10154000084B1A6801231340A342CAD0FFF7FAFBE5
:10155000801B064B9842F3D90320E7E70120E5E71B
:101560000120E3E700200240001002408813000041
:10157000FFF8FFFFFFC7FFFF701B000808000020F7
:1015800004000020014B18687047C0460800002086
:1015900010B5FFF7F7FF044BDA68120A0723134070
:1015A000024AD35CD84010BD00100240801B0008E6
:1015B00010B5FFF7E7FF044BDA68D20A07231340A0
:1015C000024AD35CD84010BD00100240801B0008C6
:1015D00070B50400026882231B011A4272D0814B4D
:1015E0009B6BDB0000D5ABE07E4A916B80235B05F3
:1015F0000B43936301257C4B1B68DB0500D4A1E002
:10160000784B1A68C0239B031A4061680B409342D1
:1016100000D1ACE0C0239B020A001A409A4200D1DC
:10162000ADE0704B1A6DC0239B02100018401A42A7
:101630001FD01940814202D023689B0608D4A368BA
:10164000C02292021340834213D023681B0510D599
:10165000644B1A6D654911401E6D802000033043B4
:101660001865186D624E304018651965D20500D5B1
:101670008CE023681B050FD5A368C02292021900D5
:101680001140914200D191E056490B6DA268C020F3
:101690008002024013430B6523689B060FD56368E5
:1016A000C022920219001140914200D188E04D49B8
:1016B0000B6D6268C0208002024013430B65012D50
:1016C00000D187E02368DB0706D5464AD36C0321A7
:1016D0008B43E1680B43D36423689B0706D5414ADB
:1016E000D36C0C218B4321690B43D36423685B07C4
:1016F00006D53C4AD36C3F490B4061690B43D36428
:1017000023681B0706D5374AD36C3B490B40A169B8
:101710000B43D36423685B0606D5324AD36C374942
:101720000B40216A0B43D36423681B0658D52D4A0E
:10173000D36C33490B40E1690B43D364002050E084
:10174000002558E7284A116880235B000B4313608B
:10175000FFF7F8FA0600244B1B68DB0500D54FE7BE
:10176000FFF7F0FA801B6428F5D9032039E0A3685D
:10177000C02080030340934200D04BE751E7194B50
:101780001B689B0300D44CE701202AE0FFF7DAFA3C
:101790000600144B1B6D9B0500D56AE7FFF7D2FAD4
:1017A000801B184B9842F4D903201AE00D490A68AF
:1017B00015480240C0208003034013430B6063E7D9
:1017C00008490A6810480240C020800303401343C0
:1017D0000B606CE7034A936B0C490B40936371E712
:1017E000002070BD0010024000700040FFFFFCFFB1
:1017F000FFFFF7FFFFF3FFFFFFCFFFFFFFFFFFFB41
:10180000FFFFF3FF88130000FFFFCFFFFFFFFFEF95
:10181000F0B5002356E086685F000324BC40A64371
:10182000CC68BC4034438460446894434E683609B5
:10183000012232409A402243426053E0DE080836DB
:10184000B600375805321A4092000F249440A7433F
:101850000C69944022003A43325056E0052600E0DD
:101860000026A64034003C4302329200444E94517C
:10187000444A9768EA433E00AE434C68E40201D50F
:101880003E002E433F4CA660E7683E0016404C6881
:10189000A40201D53E002E433A4CE66067683E0044
:1018A00016404C68A40301D53E002E43354C6660BB
:1018B000266832404C68E40301D52A003243314C9B
:1018C000226001330C682200DA4057D001229A408E
:1018D000250015401442F4D04E6803243440013CE6
:1018E000012C98D94C6803222240032A08D0C468EE
:1018F0005E000322B24094438A68B2402243C26031
:101900004C6803222240022A98D004685E00032219
:101910001700B740BC434F683A40B24022430260D0
:101920004C68C02292021442CBD0174C626B012645
:10193000324362639A08941CA400114EA7590324F1
:101940001C40A4000F26A640B743A026F605B042CF
:1019500086D00E4EB0420BD00D4EB0420AD00D4E86
:10196000B04209D00C4EB04200D177E7062678E7A6
:10197000012676E7022674E7032672E7F0BDC0462B
:10198000000001400004014000100240000400502B
:1019900000080050000C0050001C005003690B426E
:1019A00001D0012070470020FCE7002A01D08161AE
:1019B00070478162FCE7426913000B401B049143AE
:1019C0000B4383617047000070B5002811DB83086A
:1019D000134DC0339B005C5903221040C000FC3201
:1019E00016008640B44389010A40824022435A517E
:1019F00070BD0F230340083B9B0806339B00094A38
:101A0000944663445C6803221040C000FC32150019
:101A10008540AC4389010A40824022435A60E7E78F
:101A200000E100E000ED00E0013880235B04984213
:101A30000FD2094A50600948036A1B021B0AC021E1
:101A400009060B43036200239360073313600020F1
:101A500070470120FCE7C04610E000E000ED00E028
:101A6000704700000D488546FFF7FAFF0C480D4906
:101A70000D4A002302E0D458C4500433C4188C42E9
:101A8000F9D30A4A0A4C002301E013600432A2424F
:101A9000FBD300F019F8FEF7DBFDFEE70020002085
:101AA000000000200C000020A41B00080C000020F7
:101AB000BC000020FEE703008218934200D170476B
:101AC00019700133F9E7000070B500260C4C0D4D7C
:101AD000641BA410A64209D1002600F019F80A4C94
:101AE0000A4D641BA410A64205D170BDB300EB588B
:101AF00098470136EEE7B300EB5898470136F2E716
:101B00009C1B00089C1B0008A01B00089C1B0008D5
:101B1000F8B5C046F8BC08BC9E467047F8B5C0464C
:081B2000F8BC08BC9E467047AA
:101B2800520900088009000886090008BA09000857
:101B380092090008BA090008BA090008BA09000899
:101B48009809000802090008360900083C0900083D
:101B5800AE09000848090008AE090008AE090008E7
:101B6800AE0900080A090008000000000000000093
:101B7800010203040607080900000000010203042B
:0C1B8800030406080C10182030000000B8
:081B940028E7FF7F01000000BB
:041B9C00E900000854
:041BA000C100000878
:0C1BA40001000000040000000000200010
:0400000508001A6570
:00000001FF
